{
  "_format": "hh-sol-artifact-1",
  "contractName": "NFT",
  "sourceName": "contracts/NFT.sol",
  "abi": [
    {
      "inputs": [
        {
          "internalType": "string",
          "name": "_name",
          "type": "string"
        },
        {
          "internalType": "string",
          "name": "_symbol",
          "type": "string"
        }
      ],
      "stateMutability": "nonpayable",
      "type": "constructor"
    },
    {
      "anonymous": false,
      "inputs": [
        {
          "indexed": true,
          "internalType": "address",
          "name": "_owner",
          "type": "address"
        },
        {
          "indexed": true,
          "internalType": "address",
          "name": "_to",
          "type": "address"
        },
        {
          "indexed": false,
          "internalType": "uint256",
          "name": "_tokenId",
          "type": "uint256"
        }
      ],
      "name": "Approval",
      "type": "event"
    },
    {
      "anonymous": false,
      "inputs": [
        {
          "indexed": true,
          "internalType": "address",
          "name": "_owner",
          "type": "address"
        },
        {
          "indexed": true,
          "internalType": "address",
          "name": "_operator",
          "type": "address"
        },
        {
          "indexed": false,
          "internalType": "bool",
          "name": "approved",
          "type": "bool"
        }
      ],
      "name": "ApprovalForAll",
      "type": "event"
    },
    {
      "anonymous": false,
      "inputs": [
        {
          "indexed": true,
          "internalType": "address",
          "name": "_from",
          "type": "address"
        },
        {
          "indexed": true,
          "internalType": "address",
          "name": "_to",
          "type": "address"
        },
        {
          "indexed": false,
          "internalType": "uint256",
          "name": "_tokenId",
          "type": "uint256"
        }
      ],
      "name": "Transfer",
      "type": "event"
    },
    {
      "inputs": [
        {
          "internalType": "address",
          "name": "_to",
          "type": "address"
        },
        {
          "internalType": "uint256",
          "name": "_tokenId",
          "type": "uint256"
        }
      ],
      "name": "approve",
      "outputs": [],
      "stateMutability": "nonpayable",
      "type": "function"
    },
    {
      "inputs": [
        {
          "internalType": "address",
          "name": "_owner",
          "type": "address"
        }
      ],
      "name": "balanceOf",
      "outputs": [
        {
          "internalType": "uint256",
          "name": "",
          "type": "uint256"
        }
      ],
      "stateMutability": "view",
      "type": "function"
    },
    {
      "inputs": [
        {
          "internalType": "uint256",
          "name": "_tokenId",
          "type": "uint256"
        }
      ],
      "name": "getApproved",
      "outputs": [
        {
          "internalType": "address",
          "name": "",
          "type": "address"
        }
      ],
      "stateMutability": "view",
      "type": "function"
    },
    {
      "inputs": [
        {
          "internalType": "address",
          "name": "_owner",
          "type": "address"
        },
        {
          "internalType": "address",
          "name": "_operator",
          "type": "address"
        }
      ],
      "name": "isApprovedForAll",
      "outputs": [
        {
          "internalType": "bool",
          "name": "",
          "type": "bool"
        }
      ],
      "stateMutability": "view",
      "type": "function"
    },
    {
      "inputs": [
        {
          "internalType": "string",
          "name": "_tokenUri",
          "type": "string"
        }
      ],
      "name": "mint",
      "outputs": [],
      "stateMutability": "nonpayable",
      "type": "function"
    },
    {
      "inputs": [],
      "name": "name",
      "outputs": [
        {
          "internalType": "string",
          "name": "",
          "type": "string"
        }
      ],
      "stateMutability": "view",
      "type": "function"
    },
    {
      "inputs": [
        {
          "internalType": "uint256",
          "name": "_ownerId",
          "type": "uint256"
        }
      ],
      "name": "ownerOf",
      "outputs": [
        {
          "internalType": "address",
          "name": "",
          "type": "address"
        }
      ],
      "stateMutability": "view",
      "type": "function"
    },
    {
      "inputs": [
        {
          "internalType": "address",
          "name": "_operator",
          "type": "address"
        },
        {
          "internalType": "bool",
          "name": "_approved",
          "type": "bool"
        }
      ],
      "name": "setApprovalForAll",
      "outputs": [],
      "stateMutability": "nonpayable",
      "type": "function"
    },
    {
      "inputs": [],
      "name": "symbol",
      "outputs": [
        {
          "internalType": "string",
          "name": "",
          "type": "string"
        }
      ],
      "stateMutability": "view",
      "type": "function"
    },
    {
      "inputs": [],
      "name": "tokenCount",
      "outputs": [
        {
          "internalType": "uint256",
          "name": "",
          "type": "uint256"
        }
      ],
      "stateMutability": "view",
      "type": "function"
    },
    {
      "inputs": [
        {
          "internalType": "uint256",
          "name": "_tokenId",
          "type": "uint256"
        }
      ],
      "name": "tokenUri",
      "outputs": [
        {
          "internalType": "string",
          "name": "",
          "type": "string"
        }
      ],
      "stateMutability": "view",
      "type": "function"
    },
    {
      "inputs": [
        {
          "internalType": "address",
          "name": "_from",
          "type": "address"
        },
        {
          "internalType": "address",
          "name": "_to",
          "type": "address"
        },
        {
          "internalType": "uint256",
          "name": "_tokenId",
          "type": "uint256"
        }
      ],
      "name": "transferFrom",
      "outputs": [],
      "stateMutability": "nonpayable",
      "type": "function"
    }
  ],
  "bytecode": "0x60806040523480156200001157600080fd5b5060405162001c9a38038062001c9a833981810160405281019062000037919062000193565b81600490805190602001906200004f92919062000071565b5080600590805190602001906200006892919062000071565b50505062000337565b8280546200007f90620002a3565b90600052602060002090601f016020900481019282620000a35760008555620000ef565b82601f10620000be57805160ff1916838001178555620000ef565b82800160010185558215620000ef579182015b82811115620000ee578251825591602001919060010190620000d1565b5b509050620000fe919062000102565b5090565b5b808211156200011d57600081600090555060010162000103565b5090565b60006200013862000132846200023a565b62000206565b9050828152602081018484840111156200015157600080fd5b6200015e8482856200026d565b509392505050565b600082601f8301126200017857600080fd5b81516200018a84826020860162000121565b91505092915050565b60008060408385031215620001a757600080fd5b600083015167ffffffffffffffff811115620001c257600080fd5b620001d08582860162000166565b925050602083015167ffffffffffffffff811115620001ee57600080fd5b620001fc8582860162000166565b9150509250929050565b6000604051905081810181811067ffffffffffffffff8211171562000230576200022f62000308565b5b8060405250919050565b600067ffffffffffffffff82111562000258576200025762000308565b5b601f19601f8301169050602081019050919050565b60005b838110156200028d57808201518184015260208101905062000270565b838111156200029d576000848401525b50505050565b60006002820490506001821680620002bc57607f821691505b60208210811415620002d357620002d2620002d9565b5b50919050565b7f4e487b7100000000000000000000000000000000000000000000000000000000600052602260045260246000fd5b7f4e487b7100000000000000000000000000000000000000000000000000000000600052604160045260246000fd5b61195380620003476000396000f3fe608060405234801561001057600080fd5b50600436106100b45760003560e01c806370a082311161007157806370a082311461019f57806395d89b41146101cf5780639f181b5e146101ed578063a22cb4651461020b578063d85d3d2714610227578063e985e9c514610243576100b4565b806306fdde03146100b9578063081812fc146100d7578063095ea7b3146101075780631675f4551461012357806323b872dd146101535780636352211e1461016f575b600080fd5b6100c1610273565b6040516100ce919061155a565b60405180910390f35b6100f160048036038101906100ec9190611263565b610301565b6040516100fe9190611524565b60405180910390f35b610121600480360381019061011c91906111e6565b6103e0565b005b61013d60048036038101906101389190611263565b610528565b60405161014a919061155a565b60405180910390f35b61016d6004803603810190610168919061115b565b610670565b005b61018960048036038101906101849190611263565b610a59565b6040516101969190611524565b60405180910390f35b6101b960048036038101906101b491906110f6565b610b0b565b6040516101c6919061165c565b60405180910390f35b6101d7610bc2565b6040516101e4919061155a565b60405180910390f35b6101f5610c50565b604051610202919061165c565b60405180910390f35b610225600480360381019061022091906111aa565b610c56565b005b610241600480360381019061023c9190611222565b610d53565b005b61025d6004803603810190610258919061111f565b610eec565b60405161026a919061153f565b60405180910390f35b6004805461028090611808565b80601f01602080910402602001604051908101604052809291908181526020018280546102ac90611808565b80156102f95780601f106102ce576101008083540402835291602001916102f9565b820191906000526020600020905b8154815290600101906020018083116102dc57829003601f168201915b505050505081565b60008073ffffffffffffffffffffffffffffffffffffffff166001600084815260200190815260200160002060009054906101000a900473ffffffffffffffffffffffffffffffffffffffff1673ffffffffffffffffffffffffffffffffffffffff1614156103a5576040517f08c379a000000000000000000000000000000000000000000000000000000000815260040161039c906115bc565b60405180910390fd5b6003600083815260200190815260200160002060009054906101000a900473ffffffffffffffffffffffffffffffffffffffff169050919050565b60006103eb82610a59565b90503373ffffffffffffffffffffffffffffffffffffffff168173ffffffffffffffffffffffffffffffffffffffff16148061042d575061042c8133610eec565b5b61046c576040517f08c379a00000000000000000000000000000000000000000000000000000000081526004016104639061157c565b60405180910390fd5b826003600084815260200190815260200160002060006101000a81548173ffffffffffffffffffffffffffffffffffffffff021916908373ffffffffffffffffffffffffffffffffffffffff1602179055508273ffffffffffffffffffffffffffffffffffffffff168173ffffffffffffffffffffffffffffffffffffffff167f8c5be1e5ebec7d5bd14f71427d1e84f3dd0314c0f7b2291e5b200ac8c7c3b9258460405161051b919061165c565b60405180910390a3505050565b6060600073ffffffffffffffffffffffffffffffffffffffff166001600084815260200190815260200160002060009054906101000a900473ffffffffffffffffffffffffffffffffffffffff1673ffffffffffffffffffffffffffffffffffffffff1614156105cd576040517f08c379a00000000000000000000000000000000000000000000000000000000081526004016105c49061161c565b60405180910390fd5b6007600083815260200190815260200160002080546105eb90611808565b80601f016020809104026020016040519081016040528092919081815260200182805461061790611808565b80156106645780601f1061063957610100808354040283529160200191610664565b820191906000526020600020905b81548152906001019060200180831161064757829003601f168201915b50505050509050919050565b600061067b82610a59565b90503373ffffffffffffffffffffffffffffffffffffffff168173ffffffffffffffffffffffffffffffffffffffff1614806106ea57503373ffffffffffffffffffffffffffffffffffffffff166106d283610301565b73ffffffffffffffffffffffffffffffffffffffff16145b806106fb57506106fa8133610eec565b5b61073a576040517f08c379a00000000000000000000000000000000000000000000000000000000081526004016107319061163c565b60405180910390fd5b8373ffffffffffffffffffffffffffffffffffffffff168173ffffffffffffffffffffffffffffffffffffffff16146107a8576040517f08c379a000000000000000000000000000000000000000000000000000000000815260040161079f906115fc565b60405180910390fd5b600073ffffffffffffffffffffffffffffffffffffffff168373ffffffffffffffffffffffffffffffffffffffff161415610818576040517f08c379a000000000000000000000000000000000000000000000000000000000815260040161080f906115dc565b60405180910390fd5b600073ffffffffffffffffffffffffffffffffffffffff166001600084815260200190815260200160002060009054906101000a900473ffffffffffffffffffffffffffffffffffffffff1673ffffffffffffffffffffffffffffffffffffffff1614156108bb576040517f08c379a00000000000000000000000000000000000000000000000000000000081526004016108b2906115bc565b60405180910390fd5b6108c66000836103e0565b61091860016000808773ffffffffffffffffffffffffffffffffffffffff1673ffffffffffffffffffffffffffffffffffffffff16815260200190815260200160002054610f8090919063ffffffff16565b6000808673ffffffffffffffffffffffffffffffffffffffff1673ffffffffffffffffffffffffffffffffffffffff168152602001908152602001600020819055506109ac60016000808673ffffffffffffffffffffffffffffffffffffffff1673ffffffffffffffffffffffffffffffffffffffff16815260200190815260200160002054610f9690919063ffffffff16565b6000808573ffffffffffffffffffffffffffffffffffffffff1673ffffffffffffffffffffffffffffffffffffffff168152602001908152602001600020819055508273ffffffffffffffffffffffffffffffffffffffff168473ffffffffffffffffffffffffffffffffffffffff167fddf252ad1be2c89b69c2b068fc378daa952ba7f163c4a11628f55a4df523b3ef84604051610a4b919061165c565b60405180910390a350505050565b6000806001600084815260200190815260200160002060009054906101000a900473ffffffffffffffffffffffffffffffffffffffff169050600073ffffffffffffffffffffffffffffffffffffffff168173ffffffffffffffffffffffffffffffffffffffff161415610b02576040517f08c379a0000000000000000000000000000000000000000000000000000000008152600401610af99061159c565b60405180910390fd5b80915050919050565b60008073ffffffffffffffffffffffffffffffffffffffff168273ffffffffffffffffffffffffffffffffffffffff161415610b7c576040517f08c379a0000000000000000000000000000000000000000000000000000000008152600401610b739061159c565b60405180910390fd5b6000808373ffffffffffffffffffffffffffffffffffffffff1673ffffffffffffffffffffffffffffffffffffffff168152602001908152602001600020549050919050565b60058054610bcf90611808565b80601f0160208091040260200160405190810160405280929190818152602001828054610bfb90611808565b8015610c485780601f10610c1d57610100808354040283529160200191610c48565b820191906000526020600020905b815481529060010190602001808311610c2b57829003601f168201915b505050505081565b60065481565b80600260003373ffffffffffffffffffffffffffffffffffffffff1673ffffffffffffffffffffffffffffffffffffffff16815260200190815260200160002060008473ffffffffffffffffffffffffffffffffffffffff1673ffffffffffffffffffffffffffffffffffffffff16815260200190815260200160002060006101000a81548160ff0219169083151502179055508173ffffffffffffffffffffffffffffffffffffffff163373ffffffffffffffffffffffffffffffffffffffff167f17307eab39ab6107e8899845ad3d59bd9653f200f220920489ca2b5937696c3183604051610d47919061153f565b60405180910390a35050565b610d696001600654610f9690919063ffffffff16565b600681905550610dc160016000803373ffffffffffffffffffffffffffffffffffffffff1673ffffffffffffffffffffffffffffffffffffffff16815260200190815260200160002054610f9690919063ffffffff16565b6000803373ffffffffffffffffffffffffffffffffffffffff1673ffffffffffffffffffffffffffffffffffffffff168152602001908152602001600020819055503360016000600654815260200190815260200160002060006101000a81548173ffffffffffffffffffffffffffffffffffffffff021916908373ffffffffffffffffffffffffffffffffffffffff160217905550806007600060065481526020019081526020016000209080519060200190610e80929190610fac565b503373ffffffffffffffffffffffffffffffffffffffff16600073ffffffffffffffffffffffffffffffffffffffff167fddf252ad1be2c89b69c2b068fc378daa952ba7f163c4a11628f55a4df523b3ef600654604051610ee1919061165c565b60405180910390a350565b6000600260008473ffffffffffffffffffffffffffffffffffffffff1673ffffffffffffffffffffffffffffffffffffffff16815260200190815260200160002060008373ffffffffffffffffffffffffffffffffffffffff1673ffffffffffffffffffffffffffffffffffffffff16815260200190815260200160002060009054906101000a900460ff16905092915050565b60008183610f8e919061174a565b905092915050565b60008183610fa491906116f4565b905092915050565b828054610fb890611808565b90600052602060002090601f016020900481019282610fda5760008555611021565b82601f10610ff357805160ff1916838001178555611021565b82800160010185558215611021579182015b82811115611020578251825591602001919060010190611005565b5b50905061102e9190611032565b5090565b5b8082111561104b576000816000905550600101611033565b5090565b600061106261105d846116a8565b611677565b90508281526020810184848401111561107a57600080fd5b6110858482856117c6565b509392505050565b60008135905061109c816118d8565b92915050565b6000813590506110b1816118ef565b92915050565b600082601f8301126110c857600080fd5b81356110d884826020860161104f565b91505092915050565b6000813590506110f081611906565b92915050565b60006020828403121561110857600080fd5b60006111168482850161108d565b91505092915050565b6000806040838503121561113257600080fd5b60006111408582860161108d565b92505060206111518582860161108d565b9150509250929050565b60008060006060848603121561117057600080fd5b600061117e8682870161108d565b935050602061118f8682870161108d565b92505060406111a0868287016110e1565b9150509250925092565b600080604083850312156111bd57600080fd5b60006111cb8582860161108d565b92505060206111dc858286016110a2565b9150509250929050565b600080604083850312156111f957600080fd5b60006112078582860161108d565b9250506020611218858286016110e1565b9150509250929050565b60006020828403121561123457600080fd5b600082013567ffffffffffffffff81111561124e57600080fd5b61125a848285016110b7565b91505092915050565b60006020828403121561127557600080fd5b6000611283848285016110e1565b91505092915050565b6112958161177e565b82525050565b6112a481611790565b82525050565b60006112b5826116d8565b6112bf81856116e3565b93506112cf8185602086016117d5565b6112d8816118c7565b840191505092915050565b60006112f06032836116e3565b91507f4e6f7420746865206f776e6572206f7220616e20617070726f766564206f706560008301527f7261746f72206f662074686520746f6b656e00000000000000000000000000006020830152604082019050919050565b60006113566017836116e3565b91507f41646472657373206f66207a65726f206163636f756e740000000000000000006000830152602082019050919050565b60006113966014836116e3565b91507f4e6f7420612076616c696420746f6b656e2069640000000000000000000000006000830152602082019050919050565b60006113d6601a836116e3565b91507f546f2061646472657373206973207a65726f20616464726573730000000000006000830152602082019050919050565b60006114166028836116e3565b91507f46726f6d2061646472657373206964206e6f7420746865206f776e6572206f6660008301527f20746865204e46540000000000000000000000000000000000000000000000006020830152604082019050919050565b600061147c6016836116e3565b91507f546f6b656e496420646f6573206e6f74206578697374000000000000000000006000830152602082019050919050565b60006114bc6033836116e3565b91507f6d73672e73656e646572206973206e6f7420746865206f776e6572206f72206160008301527f7070726f76656420746f207472616e73666572000000000000000000000000006020830152604082019050919050565b61151e816117bc565b82525050565b6000602082019050611539600083018461128c565b92915050565b6000602082019050611554600083018461129b565b92915050565b6000602082019050818103600083015261157481846112aa565b905092915050565b60006020820190508181036000830152611595816112e3565b9050919050565b600060208201905081810360008301526115b581611349565b9050919050565b600060208201905081810360008301526115d581611389565b9050919050565b600060208201905081810360008301526115f5816113c9565b9050919050565b6000602082019050818103600083015261161581611409565b9050919050565b600060208201905081810360008301526116358161146f565b9050919050565b60006020820190508181036000830152611655816114af565b9050919050565b60006020820190506116716000830184611515565b92915050565b6000604051905081810181811067ffffffffffffffff8211171561169e5761169d611898565b5b8060405250919050565b600067ffffffffffffffff8211156116c3576116c2611898565b5b601f19601f8301169050602081019050919050565b600081519050919050565b600082825260208201905092915050565b60006116ff826117bc565b915061170a836117bc565b9250827fffffffffffffffffffffffffffffffffffffffffffffffffffffffffffffffff0382111561173f5761173e61183a565b5b828201905092915050565b6000611755826117bc565b9150611760836117bc565b9250828210156117735761177261183a565b5b828203905092915050565b60006117898261179c565b9050919050565b60008115159050919050565b600073ffffffffffffffffffffffffffffffffffffffff82169050919050565b6000819050919050565b82818337600083830152505050565b60005b838110156117f35780820151818401526020810190506117d8565b83811115611802576000848401525b50505050565b6000600282049050600182168061182057607f821691505b6020821081141561183457611833611869565b5b50919050565b7f4e487b7100000000000000000000000000000000000000000000000000000000600052601160045260246000fd5b7f4e487b7100000000000000000000000000000000000000000000000000000000600052602260045260246000fd5b7f4e487b7100000000000000000000000000000000000000000000000000000000600052604160045260246000fd5b6000601f19601f8301169050919050565b6118e18161177e565b81146118ec57600080fd5b50565b6118f881611790565b811461190357600080fd5b50565b61190f816117bc565b811461191a57600080fd5b5056fea2646970667358221220d4084238263f49806a96eae6a7901424afcc1964c0979e7a64ec64178b20829664736f6c63430008000033",
  "linkReferences": {},
  "deployedLinkReferences": {}
}