{
  "_format": "hh-sol-artifact-1",
  "contractName": "ERC721Token",
  "sourceName": "contracts/ERC721Token.sol",
  "abi": [
    {
      "anonymous": false,
      "inputs": [
        {
          "indexed": true,
          "internalType": "address",
          "name": "_owner",
          "type": "address"
        },
        {
          "indexed": true,
          "internalType": "address",
          "name": "_to",
          "type": "address"
        },
        {
          "indexed": false,
          "internalType": "uint256",
          "name": "_tokenId",
          "type": "uint256"
        }
      ],
      "name": "Approval",
      "type": "event"
    },
    {
      "anonymous": false,
      "inputs": [
        {
          "indexed": true,
          "internalType": "address",
          "name": "_owner",
          "type": "address"
        },
        {
          "indexed": true,
          "internalType": "address",
          "name": "_operator",
          "type": "address"
        },
        {
          "indexed": false,
          "internalType": "bool",
          "name": "approved",
          "type": "bool"
        }
      ],
      "name": "ApprovalForAll",
      "type": "event"
    },
    {
      "anonymous": false,
      "inputs": [
        {
          "indexed": true,
          "internalType": "address",
          "name": "_from",
          "type": "address"
        },
        {
          "indexed": true,
          "internalType": "address",
          "name": "_to",
          "type": "address"
        },
        {
          "indexed": false,
          "internalType": "uint256",
          "name": "_tokenId",
          "type": "uint256"
        }
      ],
      "name": "Transfer",
      "type": "event"
    },
    {
      "inputs": [
        {
          "internalType": "address",
          "name": "_to",
          "type": "address"
        },
        {
          "internalType": "uint256",
          "name": "_tokenId",
          "type": "uint256"
        }
      ],
      "name": "approve",
      "outputs": [],
      "stateMutability": "nonpayable",
      "type": "function"
    },
    {
      "inputs": [
        {
          "internalType": "address",
          "name": "_owner",
          "type": "address"
        }
      ],
      "name": "balanceOf",
      "outputs": [
        {
          "internalType": "uint256",
          "name": "",
          "type": "uint256"
        }
      ],
      "stateMutability": "view",
      "type": "function"
    },
    {
      "inputs": [
        {
          "internalType": "uint256",
          "name": "_tokenId",
          "type": "uint256"
        }
      ],
      "name": "getApproved",
      "outputs": [
        {
          "internalType": "address",
          "name": "",
          "type": "address"
        }
      ],
      "stateMutability": "view",
      "type": "function"
    },
    {
      "inputs": [
        {
          "internalType": "address",
          "name": "_owner",
          "type": "address"
        },
        {
          "internalType": "address",
          "name": "_operator",
          "type": "address"
        }
      ],
      "name": "isApprovedForAll",
      "outputs": [
        {
          "internalType": "bool",
          "name": "",
          "type": "bool"
        }
      ],
      "stateMutability": "view",
      "type": "function"
    },
    {
      "inputs": [
        {
          "internalType": "uint256",
          "name": "_ownerId",
          "type": "uint256"
        }
      ],
      "name": "ownerOf",
      "outputs": [
        {
          "internalType": "address",
          "name": "",
          "type": "address"
        }
      ],
      "stateMutability": "view",
      "type": "function"
    },
    {
      "inputs": [
        {
          "internalType": "address",
          "name": "_operator",
          "type": "address"
        },
        {
          "internalType": "bool",
          "name": "_approved",
          "type": "bool"
        }
      ],
      "name": "setApprovalForAll",
      "outputs": [],
      "stateMutability": "nonpayable",
      "type": "function"
    },
    {
      "inputs": [
        {
          "internalType": "address",
          "name": "_from",
          "type": "address"
        },
        {
          "internalType": "address",
          "name": "_to",
          "type": "address"
        },
        {
          "internalType": "uint256",
          "name": "_tokenId",
          "type": "uint256"
        }
      ],
      "name": "transferFrom",
      "outputs": [],
      "stateMutability": "nonpayable",
      "type": "function"
    }
  ],
  "bytecode": "0x608060405234801561001057600080fd5b5061111d806100206000396000f3fe608060405234801561001057600080fd5b506004361061007d5760003560e01c80636352211e1161005b5780636352211e146100ea57806370a082311461011a578063a22cb4651461014a578063e985e9c5146101665761007d565b8063081812fc14610082578063095ea7b3146100b257806323b872dd146100ce575b600080fd5b61009c60048036038101906100979190610c37565b610196565b6040516100a99190610e7f565b60405180910390f35b6100cc60048036038101906100c79190610bfb565b610275565b005b6100e860048036038101906100e39190610b70565b6103bd565b005b61010460048036038101906100ff9190610c37565b6107a6565b6040516101119190610e7f565b60405180910390f35b610134600480360381019061012f9190610b0b565b610858565b6040516101419190610f75565b60405180910390f35b610164600480360381019061015f9190610bbf565b61090f565b005b610180600480360381019061017b9190610b34565b610a0c565b60405161018d9190610e9a565b60405180910390f35b60008073ffffffffffffffffffffffffffffffffffffffff166001600084815260200190815260200160002060009054906101000a900473ffffffffffffffffffffffffffffffffffffffff1673ffffffffffffffffffffffffffffffffffffffff16141561023a576040517f08c379a000000000000000000000000000000000000000000000000000000000815260040161023190610ef5565b60405180910390fd5b6003600083815260200190815260200160002060009054906101000a900473ffffffffffffffffffffffffffffffffffffffff169050919050565b6000610280826107a6565b90503373ffffffffffffffffffffffffffffffffffffffff168173ffffffffffffffffffffffffffffffffffffffff1614806102c257506102c18133610a0c565b5b610301576040517f08c379a00000000000000000000000000000000000000000000000000000000081526004016102f890610eb5565b60405180910390fd5b826003600084815260200190815260200160002060006101000a81548173ffffffffffffffffffffffffffffffffffffffff021916908373ffffffffffffffffffffffffffffffffffffffff1602179055508273ffffffffffffffffffffffffffffffffffffffff168173ffffffffffffffffffffffffffffffffffffffff167f8c5be1e5ebec7d5bd14f71427d1e84f3dd0314c0f7b2291e5b200ac8c7c3b925846040516103b09190610f75565b60405180910390a3505050565b60006103c8826107a6565b90503373ffffffffffffffffffffffffffffffffffffffff168173ffffffffffffffffffffffffffffffffffffffff16148061043757503373ffffffffffffffffffffffffffffffffffffffff1661041f83610196565b73ffffffffffffffffffffffffffffffffffffffff16145b8061044857506104478133610a0c565b5b610487576040517f08c379a000000000000000000000000000000000000000000000000000000000815260040161047e90610f55565b60405180910390fd5b8373ffffffffffffffffffffffffffffffffffffffff168173ffffffffffffffffffffffffffffffffffffffff16146104f5576040517f08c379a00000000000000000000000000000000000000000000000000000000081526004016104ec90610f35565b60405180910390fd5b600073ffffffffffffffffffffffffffffffffffffffff168373ffffffffffffffffffffffffffffffffffffffff161415610565576040517f08c379a000000000000000000000000000000000000000000000000000000000815260040161055c90610f15565b60405180910390fd5b600073ffffffffffffffffffffffffffffffffffffffff166001600084815260200190815260200160002060009054906101000a900473ffffffffffffffffffffffffffffffffffffffff1673ffffffffffffffffffffffffffffffffffffffff161415610608576040517f08c379a00000000000000000000000000000000000000000000000000000000081526004016105ff90610ef5565b60405180910390fd5b610613600083610275565b61066560016000808773ffffffffffffffffffffffffffffffffffffffff1673ffffffffffffffffffffffffffffffffffffffff16815260200190815260200160002054610aa090919063ffffffff16565b6000808673ffffffffffffffffffffffffffffffffffffffff1673ffffffffffffffffffffffffffffffffffffffff168152602001908152602001600020819055506106f960016000808673ffffffffffffffffffffffffffffffffffffffff1673ffffffffffffffffffffffffffffffffffffffff16815260200190815260200160002054610ab690919063ffffffff16565b6000808573ffffffffffffffffffffffffffffffffffffffff1673ffffffffffffffffffffffffffffffffffffffff168152602001908152602001600020819055508273ffffffffffffffffffffffffffffffffffffffff168473ffffffffffffffffffffffffffffffffffffffff167fddf252ad1be2c89b69c2b068fc378daa952ba7f163c4a11628f55a4df523b3ef846040516107989190610f75565b60405180910390a350505050565b6000806001600084815260200190815260200160002060009054906101000a900473ffffffffffffffffffffffffffffffffffffffff169050600073ffffffffffffffffffffffffffffffffffffffff168173ffffffffffffffffffffffffffffffffffffffff16141561084f576040517f08c379a000000000000000000000000000000000000000000000000000000000815260040161084690610ed5565b60405180910390fd5b80915050919050565b60008073ffffffffffffffffffffffffffffffffffffffff168273ffffffffffffffffffffffffffffffffffffffff1614156108c9576040517f08c379a00000000000000000000000000000000000000000000000000000000081526004016108c090610ed5565b60405180910390fd5b6000808373ffffffffffffffffffffffffffffffffffffffff1673ffffffffffffffffffffffffffffffffffffffff168152602001908152602001600020549050919050565b80600260003373ffffffffffffffffffffffffffffffffffffffff1673ffffffffffffffffffffffffffffffffffffffff16815260200190815260200160002060008473ffffffffffffffffffffffffffffffffffffffff1673ffffffffffffffffffffffffffffffffffffffff16815260200190815260200160002060006101000a81548160ff0219169083151502179055508173ffffffffffffffffffffffffffffffffffffffff163373ffffffffffffffffffffffffffffffffffffffff167f17307eab39ab6107e8899845ad3d59bd9653f200f220920489ca2b5937696c3183604051610a009190610e9a565b60405180910390a35050565b6000600260008473ffffffffffffffffffffffffffffffffffffffff1673ffffffffffffffffffffffffffffffffffffffff16815260200190815260200160002060008373ffffffffffffffffffffffffffffffffffffffff1673ffffffffffffffffffffffffffffffffffffffff16815260200190815260200160002060009054906101000a900460ff16905092915050565b60008183610aae9190610ff7565b905092915050565b60008183610ac49190610fa1565b905092915050565b600081359050610adb816110a2565b92915050565b600081359050610af0816110b9565b92915050565b600081359050610b05816110d0565b92915050565b600060208284031215610b1d57600080fd5b6000610b2b84828501610acc565b91505092915050565b60008060408385031215610b4757600080fd5b6000610b5585828601610acc565b9250506020610b6685828601610acc565b9150509250929050565b600080600060608486031215610b8557600080fd5b6000610b9386828701610acc565b9350506020610ba486828701610acc565b9250506040610bb586828701610af6565b9150509250925092565b60008060408385031215610bd257600080fd5b6000610be085828601610acc565b9250506020610bf185828601610ae1565b9150509250929050565b60008060408385031215610c0e57600080fd5b6000610c1c85828601610acc565b9250506020610c2d85828601610af6565b9150509250929050565b600060208284031215610c4957600080fd5b6000610c5784828501610af6565b91505092915050565b610c698161102b565b82525050565b610c788161103d565b82525050565b6000610c8b603283610f90565b91507f4e6f7420746865206f776e6572206f7220616e20617070726f766564206f706560008301527f7261746f72206f662074686520746f6b656e00000000000000000000000000006020830152604082019050919050565b6000610cf1601783610f90565b91507f41646472657373206f66207a65726f206163636f756e740000000000000000006000830152602082019050919050565b6000610d31601483610f90565b91507f4e6f7420612076616c696420746f6b656e2069640000000000000000000000006000830152602082019050919050565b6000610d71601a83610f90565b91507f546f2061646472657373206973207a65726f20616464726573730000000000006000830152602082019050919050565b6000610db1602883610f90565b91507f46726f6d2061646472657373206964206e6f7420746865206f776e6572206f6660008301527f20746865204e46540000000000000000000000000000000000000000000000006020830152604082019050919050565b6000610e17603383610f90565b91507f6d73672e73656e646572206973206e6f7420746865206f776e6572206f72206160008301527f7070726f76656420746f207472616e73666572000000000000000000000000006020830152604082019050919050565b610e7981611069565b82525050565b6000602082019050610e946000830184610c60565b92915050565b6000602082019050610eaf6000830184610c6f565b92915050565b60006020820190508181036000830152610ece81610c7e565b9050919050565b60006020820190508181036000830152610eee81610ce4565b9050919050565b60006020820190508181036000830152610f0e81610d24565b9050919050565b60006020820190508181036000830152610f2e81610d64565b9050919050565b60006020820190508181036000830152610f4e81610da4565b9050919050565b60006020820190508181036000830152610f6e81610e0a565b9050919050565b6000602082019050610f8a6000830184610e70565b92915050565b600082825260208201905092915050565b6000610fac82611069565b9150610fb783611069565b9250827fffffffffffffffffffffffffffffffffffffffffffffffffffffffffffffffff03821115610fec57610feb611073565b5b828201905092915050565b600061100282611069565b915061100d83611069565b9250828210156110205761101f611073565b5b828203905092915050565b600061103682611049565b9050919050565b60008115159050919050565b600073ffffffffffffffffffffffffffffffffffffffff82169050919050565b6000819050919050565b7f4e487b7100000000000000000000000000000000000000000000000000000000600052601160045260246000fd5b6110ab8161102b565b81146110b657600080fd5b50565b6110c28161103d565b81146110cd57600080fd5b50565b6110d981611069565b81146110e457600080fd5b5056fea26469706673582212201f225ca6122927b62b57673e032b1560bf70064196db4c6a5920a144f5c5eb9364736f6c63430008000033",
  "linkReferences": {},
  "deployedLinkReferences": {}
}